{
  "_format": "hh-sol-artifact-1",
  "contractName": "Reciportal",
  "sourceName": "contracts/Reciportal.sol",
  "abi": [
    {
      "inputs": [],
      "stateMutability": "payable",
      "type": "constructor"
    },
    {
      "anonymous": false,
      "inputs": [
        {
          "indexed": true,
          "internalType": "address",
          "name": "from",
          "type": "address"
        },
        {
          "indexed": false,
          "internalType": "uint256",
          "name": "timestamp",
          "type": "uint256"
        },
        {
          "indexed": false,
          "internalType": "string",
          "name": "title",
          "type": "string"
        },
        {
          "indexed": false,
          "internalType": "string",
          "name": "ingredients",
          "type": "string"
        },
        {
          "indexed": false,
          "internalType": "string",
          "name": "instructions",
          "type": "string"
        }
      ],
      "name": "NewRecipe",
      "type": "event"
    },
    {
      "inputs": [],
      "name": "getAllRecipes",
      "outputs": [
        {
          "components": [
            {
              "internalType": "address",
              "name": "sender",
              "type": "address"
            },
            {
              "internalType": "string",
              "name": "title",
              "type": "string"
            },
            {
              "internalType": "string",
              "name": "ingredients",
              "type": "string"
            },
            {
              "internalType": "string",
              "name": "instructions",
              "type": "string"
            },
            {
              "internalType": "uint256",
              "name": "timestamp",
              "type": "uint256"
            }
          ],
          "internalType": "struct Reciportal.Recipe[]",
          "name": "",
          "type": "tuple[]"
        }
      ],
      "stateMutability": "view",
      "type": "function"
    },
    {
      "inputs": [],
      "name": "getTotalRecipes",
      "outputs": [
        {
          "internalType": "uint256",
          "name": "",
          "type": "uint256"
        }
      ],
      "stateMutability": "view",
      "type": "function"
    },
    {
      "inputs": [
        {
          "internalType": "string",
          "name": "_title",
          "type": "string"
        },
        {
          "internalType": "string",
          "name": "_ingredients",
          "type": "string"
        },
        {
          "internalType": "string",
          "name": "_instructions",
          "type": "string"
        }
      ],
      "name": "recipost",
      "outputs": [],
      "stateMutability": "nonpayable",
      "type": "function"
    }
  ],
  "bytecode": "0x6080604052620000336040518060600160405280603781526020016200155f603791396200003960201b620007a61760201c565b620001cd565b620000d98160405160240162000050919062000146565b6040516020818303038152906040527f41304fac000000000000000000000000000000000000000000000000000000007bffffffffffffffffffffffffffffffffffffffffffffffffffffffff19166020820180517bffffffffffffffffffffffffffffffffffffffffffffffffffffffff8381831617835250505050620000dc60201b60201c565b50565b60008151905060006a636f6e736f6c652e6c6f679050602083016000808483855afa5050505050565b600062000112826200016a565b6200011e818562000175565b93506200013081856020860162000186565b6200013b81620001bc565b840191505092915050565b6000602082019050818103600083015262000162818462000105565b905092915050565b600081519050919050565b600082825260208201905092915050565b60005b83811015620001a657808201518184015260208101905062000189565b83811115620001b6576000848401525b50505050565b6000601f19601f8301169050919050565b61138280620001dd6000396000f3fe608060405234801561001057600080fd5b50600436106100415760003560e01c80631650ac6d1461004657806378f1ff6f14610064578063d075f92114610080575b600080fd5b61004e61009e565b60405161005b9190610ea2565b60405180910390f35b61007e60048036038101906100799190610aab565b6100e9565b005b610088610531565b6040516100959190610d9e565b60405180910390f35b60006100e16040518060400160405280601781526020017f5765206861766520256420746f74616c2077617665732100000000000000000081525060005461083f565b600054905090565b42610384600360003373ffffffffffffffffffffffffffffffffffffffff1673ffffffffffffffffffffffffffffffffffffffff168152602001908152602001600020546101379190610fde565b10610177576040517f08c379a000000000000000000000000000000000000000000000000000000000815260040161016e90610e42565b60405180910390fd5b42600360003373ffffffffffffffffffffffffffffffffffffffff1673ffffffffffffffffffffffffffffffffffffffff168152602001908152602001600020819055506000808154809291906101cd90611115565b91905055506102116040518060400160405280601981526020017f2573206861732073656e64207468656972207265636970652100000000000000815250336108db565b60026040518060a001604052803373ffffffffffffffffffffffffffffffffffffffff16815260200185815260200184815260200183815260200142815250908060018154018082558091505060019003906000526020600020906005020160009091909190915060008201518160000160006101000a81548173ffffffffffffffffffffffffffffffffffffffff021916908373ffffffffffffffffffffffffffffffffffffffff16021790555060208201518160010190805190602001906102dc9291906109a0565b5060408201518160020190805190602001906102f99291906109a0565b5060608201518160030190805190602001906103169291906109a0565b506080820151816004015550506000606460015442446103369190610fde565b6103409190610fde565b61034a919061115e565b905061038b6040518060400160405280601181526020017f52616e646f6d206e756d6265723a2025640000000000000000000000000000008152508261083f565b8060018190555060058110156104d7576103da6040518060400160405280600781526020017f257320776f6e2100000000000000000000000000000000000000000000000000815250336108db565b6000655af3107a4000905047811115610428576040517f08c379a000000000000000000000000000000000000000000000000000000000815260040161041f90610e62565b60405180910390fd5b60003373ffffffffffffffffffffffffffffffffffffffff168260405161044e90610d89565b60006040518083038185875af1925050503d806000811461048b576040519150601f19603f3d011682016040523d82523d6000602084013e610490565b606091505b50509050806104d4576040517f08c379a00000000000000000000000000000000000000000000000000000000081526004016104cb90610e82565b60405180910390fd5b50505b3373ffffffffffffffffffffffffffffffffffffffff167f01900b523b36d2ec6403546a1544160254658ca7330685ac9425de6fda725463428686866040516105239493929190610ebd565b60405180910390a250505050565b60606002805480602002602001604051908101604052809291908181526020016000905b8282101561079d57838290600052602060002090600502016040518060a00160405290816000820160009054906101000a900473ffffffffffffffffffffffffffffffffffffffff1673ffffffffffffffffffffffffffffffffffffffff1673ffffffffffffffffffffffffffffffffffffffff1681526020016001820180546105de906110b2565b80601f016020809104026020016040519081016040528092919081815260200182805461060a906110b2565b80156106575780601f1061062c57610100808354040283529160200191610657565b820191906000526020600020905b81548152906001019060200180831161063a57829003601f168201915b50505050508152602001600282018054610670906110b2565b80601f016020809104026020016040519081016040528092919081815260200182805461069c906110b2565b80156106e95780601f106106be576101008083540402835291602001916106e9565b820191906000526020600020905b8154815290600101906020018083116106cc57829003601f168201915b50505050508152602001600382018054610702906110b2565b80601f016020809104026020016040519081016040528092919081815260200182805461072e906110b2565b801561077b5780601f106107505761010080835404028352916020019161077b565b820191906000526020600020905b81548152906001019060200180831161075e57829003601f168201915b5050505050815260200160048201548152505081526020019060010190610555565b50505050905090565b61083c816040516024016107ba9190610dc0565b6040516020818303038152906040527f41304fac000000000000000000000000000000000000000000000000000000007bffffffffffffffffffffffffffffffffffffffffffffffffffffffff19166020820180517bffffffffffffffffffffffffffffffffffffffffffffffffffffffff8381831617835250505050610977565b50565b6108d78282604051602401610855929190610e12565b6040516020818303038152906040527f9710a9d0000000000000000000000000000000000000000000000000000000007bffffffffffffffffffffffffffffffffffffffffffffffffffffffff19166020820180517bffffffffffffffffffffffffffffffffffffffffffffffffffffffff8381831617835250505050610977565b5050565b61097382826040516024016108f1929190610de2565b6040516020818303038152906040527f319af333000000000000000000000000000000000000000000000000000000007bffffffffffffffffffffffffffffffffffffffffffffffffffffffff19166020820180517bffffffffffffffffffffffffffffffffffffffffffffffffffffffff8381831617835250505050610977565b5050565b60008151905060006a636f6e736f6c652e6c6f679050602083016000808483855afa5050505050565b8280546109ac906110b2565b90600052602060002090601f0160209004810192826109ce5760008555610a15565b82601f106109e757805160ff1916838001178555610a15565b82800160010185558215610a15579182015b82811115610a145782518255916020019190600101906109f9565b5b509050610a229190610a26565b5090565b5b80821115610a3f576000816000905550600101610a27565b5090565b6000610a56610a5184610f3c565b610f17565b905082815260208101848484011115610a6e57600080fd5b610a79848285611070565b509392505050565b600082601f830112610a9257600080fd5b8135610aa2848260208601610a43565b91505092915050565b600080600060608486031215610ac057600080fd5b600084013567ffffffffffffffff811115610ada57600080fd5b610ae686828701610a81565b935050602084013567ffffffffffffffff811115610b0357600080fd5b610b0f86828701610a81565b925050604084013567ffffffffffffffff811115610b2c57600080fd5b610b3886828701610a81565b9150509250925092565b6000610b4e8383610ce7565b905092915050565b610b5f81611034565b82525050565b610b6e81611034565b82525050565b6000610b7f82610f7d565b610b898185610fa0565b935083602082028501610b9b85610f6d565b8060005b85811015610bd75784840389528151610bb88582610b42565b9450610bc383610f93565b925060208a01995050600181019050610b9f565b50829750879550505050505092915050565b6000610bf482610f88565b610bfe8185610fbc565b9350610c0e81856020860161107f565b610c178161124b565b840191505092915050565b6000610c2d82610f88565b610c378185610fcd565b9350610c4781856020860161107f565b610c508161124b565b840191505092915050565b6000610c68602e83610fcd565b9150610c738261125c565b604082019050919050565b6000610c8b603583610fcd565b9150610c96826112ab565b604082019050919050565b6000610cae602783610fcd565b9150610cb9826112fa565b604082019050919050565b6000610cd1600083610fb1565b9150610cdc82611349565b600082019050919050565b600060a083016000830151610cff6000860182610b56565b5060208301518482036020860152610d178282610be9565b91505060408301518482036040860152610d318282610be9565b91505060608301518482036060860152610d4b8282610be9565b9150506080830151610d606080860182610d6b565b508091505092915050565b610d7481611066565b82525050565b610d8381611066565b82525050565b6000610d9482610cc4565b9150819050919050565b60006020820190508181036000830152610db88184610b74565b905092915050565b60006020820190508181036000830152610dda8184610c22565b905092915050565b60006040820190508181036000830152610dfc8185610c22565b9050610e0b6020830184610b65565b9392505050565b60006040820190508181036000830152610e2c8185610c22565b9050610e3b6020830184610d7a565b9392505050565b60006020820190508181036000830152610e5b81610c5b565b9050919050565b60006020820190508181036000830152610e7b81610c7e565b9050919050565b60006020820190508181036000830152610e9b81610ca1565b9050919050565b6000602082019050610eb76000830184610d7a565b92915050565b6000608082019050610ed26000830187610d7a565b8181036020830152610ee48186610c22565b90508181036040830152610ef88185610c22565b90508181036060830152610f0c8184610c22565b905095945050505050565b6000610f21610f32565b9050610f2d82826110e4565b919050565b6000604051905090565b600067ffffffffffffffff821115610f5757610f5661121c565b5b610f608261124b565b9050602081019050919050565b6000819050602082019050919050565b600081519050919050565b600081519050919050565b6000602082019050919050565b600082825260208201905092915050565b600081905092915050565b600082825260208201905092915050565b600082825260208201905092915050565b6000610fe982611066565b9150610ff483611066565b9250827fffffffffffffffffffffffffffffffffffffffffffffffffffffffffffffffff038211156110295761102861118f565b5b828201905092915050565b600061103f82611046565b9050919050565b600073ffffffffffffffffffffffffffffffffffffffff82169050919050565b6000819050919050565b82818337600083830152505050565b60005b8381101561109d578082015181840152602081019050611082565b838111156110ac576000848401525b50505050565b600060028204905060018216806110ca57607f821691505b602082108114156110de576110dd6111ed565b5b50919050565b6110ed8261124b565b810181811067ffffffffffffffff8211171561110c5761110b61121c565b5b80604052505050565b600061112082611066565b91507fffffffffffffffffffffffffffffffffffffffffffffffffffffffffffffffff8214156111535761115261118f565b5b600182019050919050565b600061116982611066565b915061117483611066565b925082611184576111836111be565b5b828206905092915050565b7f4e487b7100000000000000000000000000000000000000000000000000000000600052601160045260246000fd5b7f4e487b7100000000000000000000000000000000000000000000000000000000600052601260045260246000fd5b7f4e487b7100000000000000000000000000000000000000000000000000000000600052602260045260246000fd5b7f4e487b7100000000000000000000000000000000000000000000000000000000600052604160045260246000fd5b6000601f19601f8301169050919050565b7f596f752063616e206f6e6c79207375626d69742061207265636970652065766560008201527f7279203135206d696e757465732e000000000000000000000000000000000000602082015250565b7f547279696e6720746f207769746864726177206d6f7265206d6f6e657920746860008201527f616e207468657920636f6e7472616374206861732e0000000000000000000000602082015250565b7f4661696c656420746f207769746864726177206d6f6e65792066726f6d20636f60008201527f6e74726163742100000000000000000000000000000000000000000000000000602082015250565b5056fea264697066735822122035ad33c184f92f0df7bfc5ed01d1ca3c8eae9bf7ae3d35c37d37aefc2fd207da64736f6c63430008040033436f6c6c65637420616c6c2074686520726563697065732120416c6c20796f757220726563697065732062656c6f6e6720746f20757321",
  "linkReferences": {},
  "deployedLinkReferences": {}
}