{
  "_format": "hh-sol-artifact-1",
  "contractName": "Reciportal",
  "sourceName": "contracts/Reciportal.sol",
  "abi": [
    {
      "inputs": [],
      "stateMutability": "nonpayable",
      "type": "constructor"
    },
    {
      "anonymous": false,
      "inputs": [
        {
          "indexed": true,
          "internalType": "address",
          "name": "from",
          "type": "address"
        },
        {
          "indexed": false,
          "internalType": "uint256",
          "name": "timestamp",
          "type": "uint256"
        },
        {
          "indexed": false,
          "internalType": "string",
          "name": "title",
          "type": "string"
        },
        {
          "indexed": false,
          "internalType": "string",
          "name": "ingredients",
          "type": "string"
        },
        {
          "indexed": false,
          "internalType": "string",
          "name": "instructions",
          "type": "string"
        }
      ],
      "name": "NewRecipe",
      "type": "event"
    },
    {
      "inputs": [],
      "name": "getAllRecipes",
      "outputs": [
        {
          "components": [
            {
              "internalType": "address",
              "name": "sender",
              "type": "address"
            },
            {
              "internalType": "string",
              "name": "title",
              "type": "string"
            },
            {
              "internalType": "string",
              "name": "ingredients",
              "type": "string"
            },
            {
              "internalType": "string",
              "name": "instructions",
              "type": "string"
            },
            {
              "internalType": "uint256",
              "name": "timestamp",
              "type": "uint256"
            }
          ],
          "internalType": "struct Reciportal.Recipe[]",
          "name": "",
          "type": "tuple[]"
        }
      ],
      "stateMutability": "view",
      "type": "function"
    },
    {
      "inputs": [],
      "name": "getTotalRecipes",
      "outputs": [
        {
          "internalType": "uint256",
          "name": "",
          "type": "uint256"
        }
      ],
      "stateMutability": "view",
      "type": "function"
    },
    {
      "inputs": [
        {
          "internalType": "string",
          "name": "_title",
          "type": "string"
        },
        {
          "internalType": "string",
          "name": "_ingredients",
          "type": "string"
        },
        {
          "internalType": "string",
          "name": "_instructions",
          "type": "string"
        }
      ],
      "name": "recipost",
      "outputs": [],
      "stateMutability": "nonpayable",
      "type": "function"
    }
  ],
  "bytecode": "0x60806040523480156200001157600080fd5b506200004160405180606001604052806037815260200162001034603791396200004760201b6200051f1760201c565b620001db565b620000e7816040516024016200005e919062000154565b6040516020818303038152906040527f41304fac000000000000000000000000000000000000000000000000000000007bffffffffffffffffffffffffffffffffffffffffffffffffffffffff19166020820180517bffffffffffffffffffffffffffffffffffffffffffffffffffffffff8381831617835250505050620000ea60201b60201c565b50565b60008151905060006a636f6e736f6c652e6c6f679050602083016000808483855afa5050505050565b6000620001208262000178565b6200012c818562000183565b93506200013e81856020860162000194565b6200014981620001ca565b840191505092915050565b6000602082019050818103600083015262000170818462000113565b905092915050565b600081519050919050565b600082825260208201905092915050565b60005b83811015620001b457808201518184015260208101905062000197565b83811115620001c4576000848401525b50505050565b6000601f19601f8301169050919050565b610e4980620001eb6000396000f3fe608060405234801561001057600080fd5b50600436106100415760003560e01c80631650ac6d1461004657806378f1ff6f14610064578063d075f92114610080575b600080fd5b61004e61009e565b60405161005b9190610b1a565b60405180910390f35b61007e60048036038101906100799190610824565b6100e9565b005b6100886102aa565b6040516100959190610a76565b60405180910390f35b60006100e16040518060400160405280601781526020017f5765206861766520256420746f74616c207761766573210000000000000000008152506000546105b8565b600054905090565b6000808154809291906100fb90610d2c565b919050555061013f6040518060400160405280601981526020017f2573206861732073656e6420746865697220726563697065210000000000000081525033610654565b60016040518060a001604052803373ffffffffffffffffffffffffffffffffffffffff16815260200185815260200184815260200183815260200142815250908060018154018082558091505060019003906000526020600020906005020160009091909190915060008201518160000160006101000a81548173ffffffffffffffffffffffffffffffffffffffff021916908373ffffffffffffffffffffffffffffffffffffffff160217905550602082015181600101908051906020019061020a929190610719565b506040820151816002019080519060200190610227929190610719565b506060820151816003019080519060200190610244929190610719565b506080820151816004015550503373ffffffffffffffffffffffffffffffffffffffff167f01900b523b36d2ec6403546a1544160254658ca7330685ac9425de6fda7254634285858560405161029d9493929190610b35565b60405180910390a2505050565b60606001805480602002602001604051908101604052809291908181526020016000905b8282101561051657838290600052602060002090600502016040518060a00160405290816000820160009054906101000a900473ffffffffffffffffffffffffffffffffffffffff1673ffffffffffffffffffffffffffffffffffffffff1673ffffffffffffffffffffffffffffffffffffffff16815260200160018201805461035790610cc9565b80601f016020809104026020016040519081016040528092919081815260200182805461038390610cc9565b80156103d05780601f106103a5576101008083540402835291602001916103d0565b820191906000526020600020905b8154815290600101906020018083116103b357829003601f168201915b505050505081526020016002820180546103e990610cc9565b80601f016020809104026020016040519081016040528092919081815260200182805461041590610cc9565b80156104625780601f1061043757610100808354040283529160200191610462565b820191906000526020600020905b81548152906001019060200180831161044557829003601f168201915b5050505050815260200160038201805461047b90610cc9565b80601f01602080910402602001604051908101604052809291908181526020018280546104a790610cc9565b80156104f45780601f106104c9576101008083540402835291602001916104f4565b820191906000526020600020905b8154815290600101906020018083116104d757829003601f168201915b50505050508152602001600482015481525050815260200190600101906102ce565b50505050905090565b6105b5816040516024016105339190610a98565b6040516020818303038152906040527f41304fac000000000000000000000000000000000000000000000000000000007bffffffffffffffffffffffffffffffffffffffffffffffffffffffff19166020820180517bffffffffffffffffffffffffffffffffffffffffffffffffffffffff83818316178352505050506106f0565b50565b61065082826040516024016105ce929190610aea565b6040516020818303038152906040527f9710a9d0000000000000000000000000000000000000000000000000000000007bffffffffffffffffffffffffffffffffffffffffffffffffffffffff19166020820180517bffffffffffffffffffffffffffffffffffffffffffffffffffffffff83818316178352505050506106f0565b5050565b6106ec828260405160240161066a929190610aba565b6040516020818303038152906040527f319af333000000000000000000000000000000000000000000000000000000007bffffffffffffffffffffffffffffffffffffffffffffffffffffffff19166020820180517bffffffffffffffffffffffffffffffffffffffffffffffffffffffff83818316178352505050506106f0565b5050565b60008151905060006a636f6e736f6c652e6c6f679050602083016000808483855afa5050505050565b82805461072590610cc9565b90600052602060002090601f016020900481019282610747576000855561078e565b82601f1061076057805160ff191683800117855561078e565b8280016001018555821561078e579182015b8281111561078d578251825591602001919060010190610772565b5b50905061079b919061079f565b5090565b5b808211156107b85760008160009055506001016107a0565b5090565b60006107cf6107ca84610bb4565b610b8f565b9050828152602081018484840111156107e757600080fd5b6107f2848285610c87565b509392505050565b600082601f83011261080b57600080fd5b813561081b8482602086016107bc565b91505092915050565b60008060006060848603121561083957600080fd5b600084013567ffffffffffffffff81111561085357600080fd5b61085f868287016107fa565b935050602084013567ffffffffffffffff81111561087c57600080fd5b610888868287016107fa565b925050604084013567ffffffffffffffff8111156108a557600080fd5b6108b1868287016107fa565b9150509250925092565b60006108c783836109d4565b905092915050565b6108d881610c4b565b82525050565b6108e781610c4b565b82525050565b60006108f882610bf5565b6109028185610c18565b93508360208202850161091485610be5565b8060005b85811015610950578484038952815161093185826108bb565b945061093c83610c0b565b925060208a01995050600181019050610918565b50829750879550505050505092915050565b600061096d82610c00565b6109778185610c29565b9350610987818560208601610c96565b61099081610e02565b840191505092915050565b60006109a682610c00565b6109b08185610c3a565b93506109c0818560208601610c96565b6109c981610e02565b840191505092915050565b600060a0830160008301516109ec60008601826108cf565b5060208301518482036020860152610a048282610962565b91505060408301518482036040860152610a1e8282610962565b91505060608301518482036060860152610a388282610962565b9150506080830151610a4d6080860182610a58565b508091505092915050565b610a6181610c7d565b82525050565b610a7081610c7d565b82525050565b60006020820190508181036000830152610a9081846108ed565b905092915050565b60006020820190508181036000830152610ab2818461099b565b905092915050565b60006040820190508181036000830152610ad4818561099b565b9050610ae360208301846108de565b9392505050565b60006040820190508181036000830152610b04818561099b565b9050610b136020830184610a67565b9392505050565b6000602082019050610b2f6000830184610a67565b92915050565b6000608082019050610b4a6000830187610a67565b8181036020830152610b5c818661099b565b90508181036040830152610b70818561099b565b90508181036060830152610b84818461099b565b905095945050505050565b6000610b99610baa565b9050610ba58282610cfb565b919050565b6000604051905090565b600067ffffffffffffffff821115610bcf57610bce610dd3565b5b610bd882610e02565b9050602081019050919050565b6000819050602082019050919050565b600081519050919050565b600081519050919050565b6000602082019050919050565b600082825260208201905092915050565b600082825260208201905092915050565b600082825260208201905092915050565b6000610c5682610c5d565b9050919050565b600073ffffffffffffffffffffffffffffffffffffffff82169050919050565b6000819050919050565b82818337600083830152505050565b60005b83811015610cb4578082015181840152602081019050610c99565b83811115610cc3576000848401525b50505050565b60006002820490506001821680610ce157607f821691505b60208210811415610cf557610cf4610da4565b5b50919050565b610d0482610e02565b810181811067ffffffffffffffff82111715610d2357610d22610dd3565b5b80604052505050565b6000610d3782610c7d565b91507fffffffffffffffffffffffffffffffffffffffffffffffffffffffffffffffff821415610d6a57610d69610d75565b5b600182019050919050565b7f4e487b7100000000000000000000000000000000000000000000000000000000600052601160045260246000fd5b7f4e487b7100000000000000000000000000000000000000000000000000000000600052602260045260246000fd5b7f4e487b7100000000000000000000000000000000000000000000000000000000600052604160045260246000fd5b6000601f19601f830116905091905056fea264697066735822122040565cbf6ad4e8e7adf9b363a270dc03f58f4c4efd9b00d0fe7820b4ff08880664736f6c63430008040033436f6c6c65637420616c6c2074686520726563697065732120416c6c20796f757220726563697065732062656c6f6e6720746f20757321",
  "linkReferences": {},
  "deployedLinkReferences": {}
}